:100000000C9439000C9438000C9438000C9438008F
:100010000C9438000C9438000C9438000C94380080
:100020000C9438000C9438000C9438000C94380070
:100030000C9438000C9438000C9438000C94440054
:100040000C9438000C9438000C9438000C94380050
:100050000C9438000C9438000C9438000C94380040
:100060000C9438000C9438000C9438000C94380030
:10007000189540E040933F0040933D0040E8409396
:100080003E000E944F0018954F9340913F004F93C0
:100090000E9489004F9140933F004F911895CF9354
:1000A000DF93CDB7DEB70E945600FFCFCF93DF932B
:1000B000CDB7DEB784E290E020E2FC0120830E940D
:1000C000660078940000DF91CF910895CF93DF937D
:1000D000CDB7DEB780E890E0FC01108281E890E0C7
:1000E00021E0FC01208386E390E0FC01208186E38F
:1000F00090E02160FC01208384E890E0FC01118203
:1001000010828FE690E0FC0180810000DF91CF91AA
:100110000895CF93DF93CDB7DEB785E290E0FC0181
:10012000308185E290E020E22327FC01208300005B
:06013000DF91CF9108955C
:00000001FF
